{
  "address": "0x5FbDB2315678afecb367f032d93F642f64180aa3",
  "abi": [
    {
      "inputs": [
        {
          "internalType": "string",
          "name": "_name",
          "type": "string"
        },
        {
          "internalType": "string",
          "name": "_symbol",
          "type": "string"
        }
      ],
      "stateMutability": "nonpayable",
      "type": "constructor"
    },
    {
      "inputs": [
        {
          "internalType": "address",
          "name": "owner",
          "type": "address"
        },
        {
          "internalType": "address",
          "name": "spender",
          "type": "address"
        }
      ],
      "name": "PI__attemptToOverspendAllowances",
      "type": "error"
    },
    {
      "inputs": [
        {
          "internalType": "address",
          "name": "invalidEntry",
          "type": "address"
        }
      ],
      "name": "PI__invalidAddress",
      "type": "error"
    },
    {
      "anonymous": false,
      "inputs": [
        {
          "indexed": true,
          "internalType": "address",
          "name": "owner",
          "type": "address"
        },
        {
          "indexed": true,
          "internalType": "address",
          "name": "spender",
          "type": "address"
        },
        {
          "indexed": false,
          "internalType": "uint256",
          "name": "value",
          "type": "uint256"
        }
      ],
      "name": "Approval",
      "type": "event"
    },
    {
      "anonymous": false,
      "inputs": [
        {
          "indexed": false,
          "internalType": "address",
          "name": "owner",
          "type": "address"
        },
        {
          "indexed": false,
          "internalType": "address",
          "name": "spender",
          "type": "address"
        },
        {
          "indexed": false,
          "internalType": "uint256",
          "name": "amount",
          "type": "uint256"
        }
      ],
      "name": "PI_AllowanceSpent",
      "type": "event"
    },
    {
      "anonymous": false,
      "inputs": [
        {
          "indexed": false,
          "internalType": "address",
          "name": "from",
          "type": "address"
        }
      ],
      "name": "PI_AtemptToUpdateSupply",
      "type": "event"
    },
    {
      "anonymous": false,
      "inputs": [
        {
          "indexed": false,
          "internalType": "address",
          "name": "sender",
          "type": "address"
        },
        {
          "indexed": false,
          "internalType": "address",
          "name": "spender",
          "type": "address"
        }
      ],
      "name": "PI_AttemptToapprove",
      "type": "event"
    },
    {
      "anonymous": false,
      "inputs": [
        {
          "indexed": false,
          "internalType": "uint256",
          "name": "newSupply",
          "type": "uint256"
        },
        {
          "indexed": false,
          "internalType": "uint256",
          "name": "change",
          "type": "uint256"
        }
      ],
      "name": "PI_SupplyAltered",
      "type": "event"
    },
    {
      "anonymous": false,
      "inputs": [
        {
          "indexed": true,
          "internalType": "address",
          "name": "from",
          "type": "address"
        },
        {
          "indexed": true,
          "internalType": "address",
          "name": "to",
          "type": "address"
        },
        {
          "indexed": false,
          "internalType": "uint256",
          "name": "value",
          "type": "uint256"
        }
      ],
      "name": "Transfer",
      "type": "event"
    },
    {
      "inputs": [
        {
          "internalType": "address",
          "name": "owner",
          "type": "address"
        },
        {
          "internalType": "address",
          "name": "spender",
          "type": "address"
        }
      ],
      "name": "allowance",
      "outputs": [
        {
          "internalType": "uint256",
          "name": "",
          "type": "uint256"
        }
      ],
      "stateMutability": "view",
      "type": "function"
    },
    {
      "inputs": [
        {
          "internalType": "address",
          "name": "spender",
          "type": "address"
        },
        {
          "internalType": "uint256",
          "name": "amount",
          "type": "uint256"
        }
      ],
      "name": "approve",
      "outputs": [
        {
          "internalType": "bool",
          "name": "",
          "type": "bool"
        }
      ],
      "stateMutability": "nonpayable",
      "type": "function"
    },
    {
      "inputs": [
        {
          "internalType": "address",
          "name": "account",
          "type": "address"
        }
      ],
      "name": "balanceOf",
      "outputs": [
        {
          "internalType": "uint256",
          "name": "",
          "type": "uint256"
        }
      ],
      "stateMutability": "view",
      "type": "function"
    },
    {
      "inputs": [
        {
          "internalType": "uint256",
          "name": "amount",
          "type": "uint256"
        }
      ],
      "name": "burnCoins",
      "outputs": [],
      "stateMutability": "nonpayable",
      "type": "function"
    },
    {
      "inputs": [
        {
          "internalType": "uint256",
          "name": "amount",
          "type": "uint256"
        }
      ],
      "name": "mintCoins",
      "outputs": [],
      "stateMutability": "nonpayable",
      "type": "function"
    },
    {
      "inputs": [
        {
          "internalType": "address",
          "name": "owner",
          "type": "address"
        },
        {
          "internalType": "address",
          "name": "spender",
          "type": "address"
        },
        {
          "internalType": "uint256",
          "name": "amount",
          "type": "uint256"
        }
      ],
      "name": "spendAllowances",
      "outputs": [],
      "stateMutability": "nonpayable",
      "type": "function"
    },
    {
      "inputs": [],
      "name": "totalSupply",
      "outputs": [
        {
          "internalType": "uint256",
          "name": "",
          "type": "uint256"
        }
      ],
      "stateMutability": "view",
      "type": "function"
    },
    {
      "inputs": [
        {
          "internalType": "address",
          "name": "to",
          "type": "address"
        },
        {
          "internalType": "uint256",
          "name": "amount",
          "type": "uint256"
        }
      ],
      "name": "transfer",
      "outputs": [
        {
          "internalType": "bool",
          "name": "",
          "type": "bool"
        }
      ],
      "stateMutability": "nonpayable",
      "type": "function"
    },
    {
      "inputs": [
        {
          "internalType": "address",
          "name": "from",
          "type": "address"
        },
        {
          "internalType": "address",
          "name": "to",
          "type": "address"
        },
        {
          "internalType": "uint256",
          "name": "amount",
          "type": "uint256"
        }
      ],
      "name": "transferFrom",
      "outputs": [
        {
          "internalType": "bool",
          "name": "",
          "type": "bool"
        }
      ],
      "stateMutability": "nonpayable",
      "type": "function"
    },
    {
      "inputs": [],
      "name": "whoIsOwner",
      "outputs": [
        {
          "internalType": "address",
          "name": "",
          "type": "address"
        }
      ],
      "stateMutability": "view",
      "type": "function"
    }
  ],
  "transactionHash": "0x5ecdbed3d0b2aa5fee56ac3358d33bcb2fbc57616bb8bed5173242b68c9ee837",
  "args": [
    "PayCoin",
    "PAC"
  ],
  "numDeployments": 1,
  "solcInputHash": "9671728ef730773175d1650abcdaf642",
  "bytecode": "0x60a06040526012600560006101000a81548160ff021916908360ff1602179055503480156200002d57600080fd5b50604051620016bb380380620016bb833981810160405281019062000053919062000246565b816003908162000064919062000516565b50806004908162000076919062000516565b503373ffffffffffffffffffffffffffffffffffffffff1660808173ffffffffffffffffffffffffffffffffffffffff16815250505050620005fd565b6000604051905090565b600080fd5b600080fd5b600080fd5b600080fd5b6000601f19601f8301169050919050565b7f4e487b7100000000000000000000000000000000000000000000000000000000600052604160045260246000fd5b6200011c82620000d1565b810181811067ffffffffffffffff821117156200013e576200013d620000e2565b5b80604052505050565b600062000153620000b3565b905062000161828262000111565b919050565b600067ffffffffffffffff821115620001845762000183620000e2565b5b6200018f82620000d1565b9050602081019050919050565b60005b83811015620001bc5780820151818401526020810190506200019f565b60008484015250505050565b6000620001df620001d98462000166565b62000147565b905082815260208101848484011115620001fe57620001fd620000cc565b5b6200020b8482856200019c565b509392505050565b600082601f8301126200022b576200022a620000c7565b5b81516200023d848260208601620001c8565b91505092915050565b6000806040838503121562000260576200025f620000bd565b5b600083015167ffffffffffffffff811115620002815762000280620000c2565b5b6200028f8582860162000213565b925050602083015167ffffffffffffffff811115620002b357620002b2620000c2565b5b620002c18582860162000213565b9150509250929050565b600081519050919050565b7f4e487b7100000000000000000000000000000000000000000000000000000000600052602260045260246000fd5b600060028204905060018216806200031e57607f821691505b602082108103620003345762000333620002d6565b5b50919050565b60008190508160005260206000209050919050565b60006020601f8301049050919050565b600082821b905092915050565b6000600883026200039e7fffffffffffffffffffffffffffffffffffffffffffffffffffffffffffffffff826200035f565b620003aa86836200035f565b95508019841693508086168417925050509392505050565b6000819050919050565b6000819050919050565b6000620003f7620003f1620003eb84620003c2565b620003cc565b620003c2565b9050919050565b6000819050919050565b6200041383620003d6565b6200042b6200042282620003fe565b8484546200036c565b825550505050565b600090565b6200044262000433565b6200044f81848462000408565b505050565b5b8181101562000477576200046b60008262000438565b60018101905062000455565b5050565b601f821115620004c65762000490816200033a565b6200049b846200034f565b81016020851015620004ab578190505b620004c3620004ba856200034f565b83018262000454565b50505b505050565b600082821c905092915050565b6000620004eb60001984600802620004cb565b1980831691505092915050565b6000620005068383620004d8565b9150826002028217905092915050565b6200052182620002cb565b67ffffffffffffffff8111156200053d576200053c620000e2565b5b62000549825462000305565b620005568282856200047b565b600060209050601f8311600181146200058e576000841562000579578287015190505b620005858582620004f8565b865550620005f5565b601f1984166200059e866200033a565b60005b82811015620005c857848901518255600182019150602085019450602081019050620005a1565b86831015620005e85784890151620005e4601f891682620004d8565b8355505b6001600288020188555050505b505050505050565b60805161108d6200062e60003960008181610225015281816107fd01528181610823015261090a015261108d6000f3fe608060405234801561001057600080fd5b506004361061009e5760003560e01c80639ee1bd0f116100665780639ee1bd0f1461016d578063a77b6efb1461018b578063a9059cbb146101a7578063bd022ff3146101d7578063dd62ed3e146101f35761009e565b806305a8749d146100a3578063095ea7b3146100bf57806318160ddd146100ef57806323b872dd1461010d57806370a082311461013d575b600080fd5b6100bd60048036038101906100b89190610ca5565b610223565b005b6100d960048036038101906100d49190610d30565b61040b565b6040516100e69190610d8b565b60405180910390f35b6100f76105b2565b6040516101049190610db5565b60405180910390f35b61012760048036038101906101229190610dd0565b6105bc565b6040516101349190610d8b565b60405180910390f35b61015760048036038101906101529190610e23565b6107b1565b6040516101649190610db5565b60405180910390f35b6101756107f9565b6040516101829190610e5f565b60405180910390f35b6101a560048036038101906101a09190610ca5565b610821565b005b6101c160048036038101906101bc9190610d30565b6109b8565b6040516101ce9190610d8b565b60405180910390f35b6101f160048036038101906101ec9190610dd0565b610a47565b005b61020d60048036038101906102089190610e7a565b610be3565b60405161021a9190610db5565b60405180910390f35b7f000000000000000000000000000000000000000000000000000000000000000073ffffffffffffffffffffffffffffffffffffffff163373ffffffffffffffffffffffffffffffffffffffff16146102b1576040517f08c379a00000000000000000000000000000000000000000000000000000000081526004016102a890610f17565b60405180910390fd5b60003390507f4f0f6fc54320d91877c1afd6dd85a45fdb0a6cdb1186a1d2278f479e17a70c86816040516102e59190610e5f565b60405180910390a1600073ffffffffffffffffffffffffffffffffffffffff168173ffffffffffffffffffffffffffffffffffffffff160361035e57806040517f8eaf76080000000000000000000000000000000000000000000000000000000081526004016103559190610e5f565b60405180910390fd5b81600260008282546103709190610f66565b92505081905550816000808373ffffffffffffffffffffffffffffffffffffffff1673ffffffffffffffffffffffffffffffffffffffff16815260200190815260200160002060008282546103c59190610f66565b925050819055507f56d8fdd8589e62695a94e372128ab82bf1263ec49032943d1fd775be87f0d5d7600254836040516103ff929190610f9a565b60405180910390a15050565b60008033905060007f0ffa27e820d229830f49c01ff9c23619915f7a75069a0d0b0feb6a634155631d8286604051610444929190610fc3565b60405180910390a1600073ffffffffffffffffffffffffffffffffffffffff168573ffffffffffffffffffffffffffffffffffffffff16036104bd57846040517f8eaf76080000000000000000000000000000000000000000000000000000000081526004016104b49190610e5f565b60405180910390fd5b83600160008473ffffffffffffffffffffffffffffffffffffffff1673ffffffffffffffffffffffffffffffffffffffff16815260200190815260200160002060008773ffffffffffffffffffffffffffffffffffffffff1673ffffffffffffffffffffffffffffffffffffffff16815260200190815260200160002081905550600190508473ffffffffffffffffffffffffffffffffffffffff168273ffffffffffffffffffffffffffffffffffffffff167f8c5be1e5ebec7d5bd14f71427d1e84f3dd0314c0f7b2291e5b200ac8c7c3b9258660405161059f9190610db5565b60405180910390a3809250505092915050565b6000600254905090565b60008060009050600073ffffffffffffffffffffffffffffffffffffffff168473ffffffffffffffffffffffffffffffffffffffff160361063457836040517f8eaf760800000000000000000000000000000000000000000000000000000000815260040161062b9190610e5f565b60405180910390fd5b600073ffffffffffffffffffffffffffffffffffffffff168573ffffffffffffffffffffffffffffffffffffffff16036106a557846040517f8eaf760800000000000000000000000000000000000000000000000000000000815260040161069c9190610e5f565b60405180910390fd5b826000808773ffffffffffffffffffffffffffffffffffffffff1673ffffffffffffffffffffffffffffffffffffffff16815260200190815260200160002060008282540392505081905550826000808673ffffffffffffffffffffffffffffffffffffffff1673ffffffffffffffffffffffffffffffffffffffff16815260200190815260200160002060008282540192505081905550600190508373ffffffffffffffffffffffffffffffffffffffff168573ffffffffffffffffffffffffffffffffffffffff167fddf252ad1be2c89b69c2b068fc378daa952ba7f163c4a11628f55a4df523b3ef8560405161079e9190610db5565b60405180910390a3809150509392505050565b60008060008373ffffffffffffffffffffffffffffffffffffffff1673ffffffffffffffffffffffffffffffffffffffff168152602001908152602001600020549050919050565b60007f0000000000000000000000000000000000000000000000000000000000000000905090565b7f000000000000000000000000000000000000000000000000000000000000000073ffffffffffffffffffffffffffffffffffffffff163373ffffffffffffffffffffffffffffffffffffffff16146108af576040517f08c379a00000000000000000000000000000000000000000000000000000000081526004016108a690610f17565b60405180910390fd5b60003390507f4f0f6fc54320d91877c1afd6dd85a45fdb0a6cdb1186a1d2278f479e17a70c86816040516108e39190610e5f565b60405180910390a181600260008282546108fd9190610fec565b92505081905550816000807f000000000000000000000000000000000000000000000000000000000000000073ffffffffffffffffffffffffffffffffffffffff1673ffffffffffffffffffffffffffffffffffffffff16815260200190815260200160002060008282546109729190610fec565b925050819055507f56d8fdd8589e62695a94e372128ab82bf1263ec49032943d1fd775be87f0d5d7600254836040516109ac929190610f9a565b60405180910390a15050565b60008060009050600073ffffffffffffffffffffffffffffffffffffffff168473ffffffffffffffffffffffffffffffffffffffff1603610a3057836040517f8eaf7608000000000000000000000000000000000000000000000000000000008152600401610a279190610e5f565b60405180910390fd5b610a3b3385856105bc565b90508091505092915050565b6000600160008573ffffffffffffffffffffffffffffffffffffffff1673ffffffffffffffffffffffffffffffffffffffff16815260200190815260200160002060008473ffffffffffffffffffffffffffffffffffffffff1673ffffffffffffffffffffffffffffffffffffffff16815260200190815260200160002054905080821115610b0f5783836040517fe193c5b7000000000000000000000000000000000000000000000000000000008152600401610b06929190610fc3565b60405180910390fd5b81600160008673ffffffffffffffffffffffffffffffffffffffff1673ffffffffffffffffffffffffffffffffffffffff16815260200190815260200160002060008573ffffffffffffffffffffffffffffffffffffffff1673ffffffffffffffffffffffffffffffffffffffff1681526020019081526020016000206000828254610b9b9190610f66565b925050819055507ffa6b4b84efd8f95fce387d8be2fd4b65b517a4bb375a435bcb932a0639415e15848484604051610bd593929190611020565b60405180910390a150505050565b6000600160008473ffffffffffffffffffffffffffffffffffffffff1673ffffffffffffffffffffffffffffffffffffffff16815260200190815260200160002060008373ffffffffffffffffffffffffffffffffffffffff1673ffffffffffffffffffffffffffffffffffffffff16815260200190815260200160002054905092915050565b600080fd5b6000819050919050565b610c8281610c6f565b8114610c8d57600080fd5b50565b600081359050610c9f81610c79565b92915050565b600060208284031215610cbb57610cba610c6a565b5b6000610cc984828501610c90565b91505092915050565b600073ffffffffffffffffffffffffffffffffffffffff82169050919050565b6000610cfd82610cd2565b9050919050565b610d0d81610cf2565b8114610d1857600080fd5b50565b600081359050610d2a81610d04565b92915050565b60008060408385031215610d4757610d46610c6a565b5b6000610d5585828601610d1b565b9250506020610d6685828601610c90565b9150509250929050565b60008115159050919050565b610d8581610d70565b82525050565b6000602082019050610da06000830184610d7c565b92915050565b610daf81610c6f565b82525050565b6000602082019050610dca6000830184610da6565b92915050565b600080600060608486031215610de957610de8610c6a565b5b6000610df786828701610d1b565b9350506020610e0886828701610d1b565b9250506040610e1986828701610c90565b9150509250925092565b600060208284031215610e3957610e38610c6a565b5b6000610e4784828501610d1b565b91505092915050565b610e5981610cf2565b82525050565b6000602082019050610e746000830184610e50565b92915050565b60008060408385031215610e9157610e90610c6a565b5b6000610e9f85828601610d1b565b9250506020610eb085828601610d1b565b9150509250929050565b600082825260208201905092915050565b7f50495f5f7472657370617373696e670000000000000000000000000000000000600082015250565b6000610f01600f83610eba565b9150610f0c82610ecb565b602082019050919050565b60006020820190508181036000830152610f3081610ef4565b9050919050565b7f4e487b7100000000000000000000000000000000000000000000000000000000600052601160045260246000fd5b6000610f7182610c6f565b9150610f7c83610c6f565b9250828203905081811115610f9457610f93610f37565b5b92915050565b6000604082019050610faf6000830185610da6565b610fbc6020830184610da6565b9392505050565b6000604082019050610fd86000830185610e50565b610fe56020830184610e50565b9392505050565b6000610ff782610c6f565b915061100283610c6f565b925082820190508082111561101a57611019610f37565b5b92915050565b60006060820190506110356000830186610e50565b6110426020830185610e50565b61104f6040830184610da6565b94935050505056fea2646970667358221220d26749d9251ba582ac5a2e85167885953853359c925455ed18c5a1f6ac56f42c64736f6c63430008120033",
  "devdoc": {
    "events": {
      "Approval(address,address,uint256)": {
        "details": "Emitted when the allowance of a `spender` for an `owner` is set by a call to {approve}. `value` is the new allowance."
      },
      "Transfer(address,address,uint256)": {
        "details": "Emitted when `value` tokens are moved from one account (`from`) to another (`to`). Note that `value` may be zero."
      }
    },
    "kind": "dev",
    "methods": {
      "allowance(address,address)": {
        "details": "Returns the remaining number of tokens that `spender` will be allowed to spend on behalf of `owner` through {transferFrom}. This is zero by default. This value changes when {approve} or {transferFrom} are called."
      },
      "approve(address,uint256)": {
        "details": "Sets `amount` as the allowance of `spender` over the caller's tokens. Returns a boolean value indicating whether the operation succeeded. IMPORTANT: Beware that changing an allowance with this method brings the risk that someone may use both the old and the new allowance by unfortunate transaction ordering. One possible solution to mitigate this race condition is to first reduce the spender's allowance to 0 and set the desired value afterwards: https://github.com/ethereum/EIPs/issues/20#issuecomment-263524729 Emits an {Approval} event."
      },
      "balanceOf(address)": {
        "details": "Returns the amount of tokens owned by `account`."
      },
      "totalSupply()": {
        "details": "Returns the amount of tokens in existence."
      },
      "transfer(address,uint256)": {
        "details": "Moves `amount` tokens from the caller's account to `to`. Returns a boolean value indicating whether the operation succeeded. Emits a {Transfer} event."
      },
      "transferFrom(address,address,uint256)": {
        "details": "Moves `amount` tokens from `from` to `to` using the allowance mechanism. `amount` is then deducted from the caller's allowance. Returns a boolean value indicating whether the operation succeeded. Emits a {Transfer} event."
      }
    },
    "version": 1
  },
  "userdoc": {
    "kind": "user",
    "methods": {},
    "version": 1
  },
  "storageLayout": {
    "storage": [
      {
        "astId": 137,
        "contract": "contracts/PaymentInterface.sol:PaymentInterface",
        "label": "balances",
        "offset": 0,
        "slot": "0",
        "type": "t_mapping(t_address,t_uint256)"
      },
      {
        "astId": 143,
        "contract": "contracts/PaymentInterface.sol:PaymentInterface",
        "label": "allowances",
        "offset": 0,
        "slot": "1",
        "type": "t_mapping(t_address,t_mapping(t_address,t_uint256))"
      },
      {
        "astId": 145,
        "contract": "contracts/PaymentInterface.sol:PaymentInterface",
        "label": "TotalSupply",
        "offset": 0,
        "slot": "2",
        "type": "t_uint256"
      },
      {
        "astId": 147,
        "contract": "contracts/PaymentInterface.sol:PaymentInterface",
        "label": "name",
        "offset": 0,
        "slot": "3",
        "type": "t_string_storage"
      },
      {
        "astId": 149,
        "contract": "contracts/PaymentInterface.sol:PaymentInterface",
        "label": "symbol",
        "offset": 0,
        "slot": "4",
        "type": "t_string_storage"
      },
      {
        "astId": 152,
        "contract": "contracts/PaymentInterface.sol:PaymentInterface",
        "label": "decimals",
        "offset": 0,
        "slot": "5",
        "type": "t_uint8"
      }
    ],
    "types": {
      "t_address": {
        "encoding": "inplace",
        "label": "address",
        "numberOfBytes": "20"
      },
      "t_mapping(t_address,t_mapping(t_address,t_uint256))": {
        "encoding": "mapping",
        "key": "t_address",
        "label": "mapping(address => mapping(address => uint256))",
        "numberOfBytes": "32",
        "value": "t_mapping(t_address,t_uint256)"
      },
      "t_mapping(t_address,t_uint256)": {
        "encoding": "mapping",
        "key": "t_address",
        "label": "mapping(address => uint256)",
        "numberOfBytes": "32",
        "value": "t_uint256"
      },
      "t_string_storage": {
        "encoding": "bytes",
        "label": "string",
        "numberOfBytes": "32"
      },
      "t_uint256": {
        "encoding": "inplace",
        "label": "uint256",
        "numberOfBytes": "32"
      },
      "t_uint8": {
        "encoding": "inplace",
        "label": "uint8",
        "numberOfBytes": "1"
      }
    }
  }
}